:020000040000FA
:060000000A128A11E12F33
:100E3000AA34553400340A344034403446344E34F5
:100E40004234F000831203130C1283160313981616
:100E500070088312031399000C1E2F2F302F2C2F94
:100E600008007E088A007F0882000A128A11312752
:100E70000A128A118000840A04087D0603190034CE
:100E8000FF0A0319FE0A352F44340034F5340034C8
:100E90008C340034A4340034353400342634003427
:100EA00006340034F4340034043400342434003480
:100EB00014340034073400344E34003485340034A4
:100EC0000E3400341E340034FF30831603138700C1
:100ED000980180308312031398001930831603138E
:100EE00099008030940028308312031394008316F5
:100EF000031391012730930007309C009D010630B9
:100F00009F0003308500860120308400A030F1006E
:100F10000408F2002030F3007108840083130008F5
:100F2000F400F10A7208840074088000F20AF30BDE
:100F30008C2F831203135408C3005308C2005208B5
:100F4000C1005108C000CB01443084004C0880002F
:100F5000840A4D088000840A4E088000840A4F08E5
:100F60008000840A50088000861206128312031340
:100F70000616CA2F4B08443E8400831300080A1249
:100F80008A1121270A128A110130F1007108831297
:100F90000313CB0705304B02031CCF2FD02FBA2FE2
:100FA00086166630F3007630F200C130F100F10BA6
:100FB000D72FF20BD72FF30BD72FB62F0A128A1188
:100FC00000288313C030FD000730FE004430FF00CE
:100FD000A03084000A128A1135270A128A1155306E
:100FE000FD000730FE001830FF004C3084000A126C
:100FF0008A1135270A128A1183010A128A11642F75
:02400E003A3F37
:00000001FF
