:020000040000FA
:060000000A128A110C280F
:10000800FE00030EF3000A08F4000A128A117D2884
:100018000A128A110F2883136C30FD000030FE008D
:10002800A630FF00483084000A128A11CE200A1236
:100038008A11F60183010A128A112228FF308316D9
:100048000313870098018030831203139800193036
:100058008316031399008030940028308312031309
:1000680094008316031391012730930007309C00F6
:100078009D0106309F00033085008601C0308B004B
:100088008C16831203131816243084004830A000FD
:100098000408A1002030A20020088400831300086F
:1000A800A300A00A2108840023088000A10AA20B4B
:1000B80050286B08C7006A08C6006908C5006808A8
:1000C800C40041300A128A11DD200A128A110B304D
:1000D80083120313A2002630A1005D30A000A00BFC
:1000E8007328A10B7328A20B732865280A128A119A
:1000F8000C28031083120313861E03140318852883
:1001080089288312031386168C28831203138612F8
:100118002930F2009630F1007F30F000F00B922881
:10012800F10B9228F20B9228831203131A08F0009D
:100138007008F6008C1274088A00730E8300FE0E95
:100148007E0E090044340034F53400348C34003415
:10015800A4340034353400342634003406340034F2
:10016800F4340034043400342434003414340034B7
:10017800073400344E340034853400340E340034EF
:100188001E340034403446344E3442347E088A00EB
:100198007F0882000A128A11CA200A128A11800076
:1001A800840A04087D0603190034FF0A0319FE0AAD
:1001B800CE28F500831203130C1283160313981626
:1001C80075088312031399000C1EEB28EC28E82805
:0201D80008001D
:02400E003A3F37
:00000001FF
